S02B00002F686F6D652F6A6573636F6265646F2F7265706F732F6A75616E6573702F736F63732F78696C696E68
S214010000130980007310493093040000732940F1EE
S21401001063982403371100001B01F19F131141015E
S214010020EF002025B70400021309100023A02401C5
S21401003093844400370900021B090940E3C624FFE4
S214010040730050107329403413798900E30A09FEBE
S214010050B7040002732940F11319290033099900E6
S2140100602320090003A90400E31E09FE938444002B
S214010070370900021B090940E3C624FF732540F136
S21401008097050000938505389B0410009394F401AE
S208010090678004007B
S2140101000CC18280084101258280B707006003A5E3
S2140101104710118982803707006083274710918B2B
S214010120EDDF8280011122E806EC26E4A9472A8445
S2140101306313F502B7040060EFF0FFFD23A08410FF
S214010140EFF07FFDB54723A0F4104264E260A2649D
S21401015005616FF05FFCEFF01FFC0124B70700603C
S21401016023A08710DDB7411122E006E42A84034567
S214010170040009E5A260026441018280EFF09FFA63
S2140101800504F5B7370700609307400F2326F710DD
S214010190B70700808D27171500002324F7101305D5
S2140101A025B06FF05FFC970700009387A7151377BC
S2140101B0F5003E97034707001181AA97A380E50043
S2140101C083C707002380F5008280797122F026EC30
S2140101D04AE806F42A896144E1543B5589002C001B
S2140101E01375F50FEFF03FFC034581006134EFF026
S2140101F07FF303459100EFF0FFF2E31094FEA27047
S2140102000274E264426945618280797122F026ECCB
S2140102104AE806F42A8913048003E1543355890019
S2140102202C001375F50FEFF01FF8034581006134BC
S214010230EFF05FEF03459100EFF0DFEEE31094FE81
S214010240A2700274E2644269456182806FF0FFFB2E
S21401025001112C0006ECEFF01FF503458100EFF0CD
S2140102607FEC03459100EFF0FFEBE26005618280D1
S206010270828084
S214010272411106E4EFF0FFF01B0410001314F40121
S210010282970500009385E517028401A093
S2140103003031323334353637383941424344454645
S214010400D00DFEED00000896000000380000071829
S214010410000000280000001100000010000000008D
S2140104200000017E000006E0000000000000000061
S21401043000000000000000000000000100000000B5
S214010440000000030000000400000000000000029D
S21401045000000003000000040000000F000000027E
S21401046000000003000000140000001B6574682CE7
S214010470617269616E652D626172652D64657600D3
S2140104800000000300000010000000266574682CC0
S214010490617269616E652D6261726500000000011E
S2140104A063686F73656E00000000000300000019AA
S2140104B00000002C2F736F632F7561727440363005
S2140104C03030303130303A333834303000000000CC
S2140104D00000000200000001637075730000000058
S2140104E000000003000000040000000000000001FE
S2140104F000000003000000040000000F00000000E0
S214010500000000030000000400000038023C3460D4
S2140105100000000163707540300000000000000319
S214010520000000040000004B047868C000000003CF
S214010530000000040000005B63707500000000030B
S2140105400000000400000067000000000000000337
S214010550000000050000006B6F6B61790000000071
S21401056000000003000000120000001B6574682CE8
S21401057020617269616E65007269736376000000BE
S214010580000000030000000B000000727276363493
S214010590696D616664630000000000030000000BE3
S2140105A00000007C72697363762C73763339000021
S2140105B000000003000000000000008500000001AC
S2140105C0696E746572727570742D636F6E74726F76
S2140105D06C6C65720000000000000003000000045F
S2140105E00000008F00000001000000030000000072
S2140105F0000000A0000000030000000F0000001B28
S21401060072697363762C6370752D696E746300006E
S2140106100000000300000004000000B50000000117
S21401062000000002000000020000000200000001BD
S2140106306D656D6F72794038303030303030300053
S21401064000000003000000070000005B6D656D6F91
S214010650727900000000000300000010000000672F
S21401066000000000800000000000000020000000E4
S2140106700000000200000001726573657276656411
S2140106802D6D656D6F727900000000030000000497
S214010690000000000000000200000003000000044B
S2140106A00000000F00000002000000030000000030
S2140106B0000000BD0000000162756666657240615B
S2140106C030303030303030000000000300000010C1
S2140106D00000001B7368617265642D646D612D7086
S2140106E06F6F6C000000000300000000000000C4F3
S2140106F0000000030000001000000067000000007A
S214010700A000000000000000002000000000000320
S21401071000000004000000B5000000040000000214
S2140107200000000200000001736F63000000000378
S21401073000000004000000000000000200000003AA
S214010740000000040000000F00000002000000038B
S2140107500000001F0000001B6574682C617269614F
S2140107606E652D626172652D736F630073696D70BE
S2140107706C652D6275730000000000030000000028
S214010780000000BD00000001636C696E74403230E9
S2140107903030303030000000000000030000000D53
S2140107A00000001B72697363762C636C696E74308B
S2140107B0000000000000000300000010000000CB55
S2140107C00000000100000003000000010000000717
S2140107D00000000300000010000000670000000099
S2140107E00200000000000000000C000000000003F2
S2140107F000000008000000DF636F6E74726F6C000B
S2140108000000000200000001696E74657272757066
S214010810742D636F6E74726F6C6C657240366330E4
S21401082030303030300000000000000300000004CB
S21401083000000000000000000000000300000004AB
S2140108400000008F00000001000000030000000C03
S2140108500000001B72697363762C706C696330004C
S2140108600000000300000000000000A000000003DC
S21401087000000010000000CB000000010000000B8B
S2140108800000000100000009000000030000001045
S21401089000000067000000006C000000000000007F
S2140108A0040000000000000300000004000000E94E
S2140108B0000000070000000300000004000000FC28
S2140108C0000000100000000300000004000000B556
S2140108D00000000200000002000000017561727451
S2140108E04036303030303130300000000000000338
S2140108F0000000100000001B676169736C65722CB4
S21401090061706275617274000000000300000010DF
S2140109100000006700000000600001000000000009
S21401092000000100000000030000000400000107B1
S214010930047868C000000003000000040000010CF9
S2140109400000000200000003000000040000011D7A
S214010950000000030000000300000004000001285E
S2140109600000000200000003000000040000013245
S21401097000000004000000020000000167726574B8
S2140109806840363030383030303000000000000328
S2140109900000000400000000000000010000000349
S2140109A0000000040000000F00000001000000032A
S2140109B00000000F0000001B676169736C65722CF4
S2140109C06574686D616300000000000300000008A4
S2140109D00000005B6E6574776F726B0000000003A9
S2140109E0000000040000010C0000000200000003EB
S2140109F0000000080000011D0000000D00000000BE
S214010A0000000003000000060000013F0000F9A8F6
S214010A104F70000000000003000000100000006797
S214010A200000000060080000000000000001000057
S214010A300000000300000004000001510000000354
S214010A4000000003000000060000015C73676D698A
S214010A5069000000000000030000000400000170AF
S214010A6000000004000000016D64696F40363030FC
S214010A703031303030000000000000030000000478
S214010A800000000000000001000000030000000458
S214010A900000000F00000000000000030000000E30
S214010AA00000001B676169736C65722C73676D6962
S214010AB0690000000000000300000010000000674D
S214010AC000000000600010000000000000001000A0
S214010AD000000003000000040000010C00000002FA
S214010AE000000003000000080000011D0000000CCB
S214010AF0000000000000000300000004000000B534
S214010B0000000003000000020000000200000002D6
S214010B1000000002000000092361646472657373BB
S214010B202D63656C6C73002373697A652D63656C40
S214010B306C7300636F6D70617469626C65006D6FD4
S214010B4064656C007374646F75742D7061746800ED
S214010B5074696D65626173652D6672657175656E22
S214010B60637900636C6F636B2D6672657175656E74
S214010B706379006465766963655F74797065007290
S214010B806567007374617475730072697363762C9C
S214010B90697361006D6D752D7479706500746C6292
S214010BA02D73706C69740023696E7465727275704A
S214010BB0742D63656C6C7300696E74657272757002
S214010BC0742D636F6E74726F6C6C65720070686101
S214010BD06E646C650072616E676573006E6F2D6D75
S214010BE0617000696E74657272757074732D6578C4
S214010BF074656E646564007265672D6E616D6573FC
S214010C000072697363762C6D61782D7072696F72EC
S214010C106974790072697363762C6E646576006612
S214010C2072657100696E746572727570742D70618B
S214010C3072656E7400696E74657272757074730095
S214010C407265672D7368696674007265672D696FD2
S214010C502D7769647468006C6F63616C2D6D6163D8
S214010C602D61646472657373007068792D68616EB6
S214010C70646C65007068792D636F6E6E6563746968
S214010C806F6E2D74797065006D656D6F72792D725A
S214010C906567696F6E0000004553502D41726961AA
S214010CA06E652066697273742D7374616765206260
S214010CB06F6F74206C6F616465720A0A0000000031
S80401027286
