S02B00002F686F6D652F6A6573636F6265646F2F7265706F732F6A75616E6573702F736F63732F78696C696E68
S315800000008140014181410142814201438143014452
S315800000108144014581450146814601478147014822
S31580000020814801498149014A814A014B814B014CF2
S31580000030814C014D814D014E814E014F814FF962B8
S3158000004073A002308542FE0263D8020005459712EE
S31580000050000023A9A2FADDBF97020000938202095D
S315800000607390523073103000530000F0D30000F0CC
S31580000070530100F0D30100F0530200F0D30200F0E8
S31580000080530300F0D30300F0530400F0D30400F0D0
S31580000090530500F0D30500F0530600F0D30600F0B8
S315800000A0530700F0D30700F0530800F0D30800F0A0
S315800000B0530900F0D30900F0530A00F0D30A00F088
S315800000C0530B00F0D30B00F0530C00F0D30C00F070
S315800000D0530D00F0D30D00F0530E00F0D30E00F058
S315800000E0530F00F0D30F00F0970200009382820333
S315800000F073905230972100009381C1161382F18547
S31580000100137202FC732540F185456370B5001316A2
S315800001101501329213011500460112916F1020438A
S315800001206D7106E40AE80EEC12F016F41AF81EFC5D
S31580000130A2E0A6E4AAE8AEECB2F0B6F4BAF8BEFC49
S3158000014042E146E54AE94EED52F156F55AF95EFD31
S31580000150E2E1E6E5EAE9EEEDF2F1F6F5FAF9FEFD21
S3158000016073252034F32510340A86EF104027731048
S315800001701534B72200009B82028073A00230A260F1
S315800001804261E2610272A2724273E2730664A664FD
S315800001904665E6650676A6764677E6770A68AA68AD
S315800001A04A69EA690A7AAA7A4A7BEA7B0E6CAE6C5D
S315800001B04E6DEE6D0E7EAE7E4E7FEE7F516173008C
S307800001C0203067
S315800001C200000000000000000000000000000000A7
S315800001D20000000000000000000000000000000097
S315800001E20000000000000000000000000000000087
S315800001F20000000000000000000000000000000077
S315800010480D71A2EAA6E6CAE252FA5AF25EEE86EE78
S315800010584EFE56F662EA66E66AE22A89AE843284EB
S31580001068B68B130A5002171B0000130B2B8029A07E
S3158000107831C1A6850504029903450400E31A45FF94
S3158000108883461400930A14005687130C0002FD59F0
S31580001098FD5C014513065005A5459B87D6FD93F74C
S315800010A8F70F130417006365F61C8A07DA979C43C3
S315800010B8DA978287F6605664B6641669F279527A48
S315800010C8B27A127BF26B526CB26C126D3561828089
S315800010D8368C834617002287C9B72147854793866A
S315800010E88B0063C9A7146317051483E70B00B68BB7
S315800010F8B3F9E702012C5400854A4EC063F4E70031
S315800011087DAAEA8AB3D7E70291061B8D1A00B3F93E
S31580001118E70223AE36FFE3F6E7FE63599D01812C8D
S31580001128FD3CA68562850299E34C9DFF139C2A00A7
S31580001138B30A8101338C8A41A54C21A083A9CAFFB1
S31580001148F11A1305700563E43C0113050003A685AF
S315800011583B0535010299E3135CFF39BF93C7FCFF52
S31580001168FD97B3FCFC0083461700812C228735B790
S315800011784147ADB79B8906FD8346170022879B8723
S3158000118806FD1B88060063E5F50205079B9729007F
S3158000119883460700BB8937019B991900BB890901DA
S315800011A89B8706FD9B8909FD1B880600E3FFF5FCE6
S315800011B8E3D50CEECE8CFD59CDB503A50B00A685DF
S315800011C8A10B029955BD83BA0B00A10B638B0A103C
S315800011D86351900F9307D0026316FC0A03C50A0071
S315800011E805C17D5C63C50900FD3963898901A685CA
S315800011F8850A029903C50A00FD3C6DF5E35E90E712
S31580001208FD3CA685130500020299E39B0CFEADB54D
S315800012182947E9B58346170005252287BDBD1305ED
S315800012280003A6850299A6851305800702999386E9
S315800012388B00414783B70B00B68B5DBD8547938A84
S315800012488B0063C3A70051C183B90B0063C2090829
S31580001258CE87D68B294769BDA68513055002029984
S3158000126821BD83A90B0083461700A10B228789B766
S31580001278A6851305500202995684FDBB970A00007D
S31580001288938A4A74638D090683C70A00ADCB938710
S315800012981A0033863A0129A0850703C7F7FF25CBAD
S315800012A8BE86E31BF6FEBB065641BB8CDC40634814
S315800012B8900503C50A00E30105DC7D5C25B78547F3
S315800012C8814A054DE3CD97E595B583A90B00BDBF4A
S315800012D8A6851305D0020299D68BB30730412947D4
S315800012E801BD635690019307D002E319FCF8970A6B
S315800012F80000938A2A6D130580027D5CE5B5012C72
S31580001308FD3CA68562850299E39C0CFE5DB7BB868B
S31580001318564161BF9C612380A7009C6185079CE13B
S315800013288280411122E0832502049307020006E4A5
S31580001338AE971B8715002380A7002320E204A947C0
S31580001348630BF5009307F0036307F700A260026456
S31580001358014541018280930702003E9713050200EA
S3158000136823000700EF00A03C23200204A260026449
S31580001378014541018280F32700B017070000130753
S31580001388E76D19E9146317060000130626649705A6
S31580001398000023BDC56C958F9706000023B0F66CB8
S315800013A8F32720B019E918679706000093868662A6
S315800013B8170600002330D66C998F17070000233351
S315800013C8F76A82809317150093E7170017070000BE
S315800013D82336F7C201A08567938737A717070000CA
S315800013E8233EF7C001A0411106E4EFF0BFFD930745
S315800013F8D010170700002333F7C001A06F002033F1
S3158000140811C101A0828079712A8606F42800930684
S315800014187101254811A0BE869377F60093050003CF
S3158000142813F7F70F6374F80093057005BB07B700C9
S315800014382380F60011829387F6FFE31ED5FC230CE2
S315800014480100EF00C02EA270456182801D711303D2
S3158000145881022EF432F836FC2A869A861705000011
S31580001468130565EC814506ECBAE0BEE4C2E8C6EC35
S315800014781AE4EFF0FFBCE2600145256182801D71A8
S315800014881303010322F02AE432F836FC2A842E86D6
S3158000149817050000130545E82C009A8606F4BEE475
S315800014A8BAE0C2E8C6EC1AECEFF09FB9A2672380CF
S315800014B807002265A270019D027425618280B3E7C8
S315800014C8C500C98F9D8BB306C50091CF2E96AA8776
S315800014D86377D502850503C7F5FF8507A38FE7FEE2
S315800014E8E31AB6FE8280E37FD5FEAA87A10503B7F5
S315800014F885FFA10723BCE7FEE3EAD7FE82808280C8
S31580001508B367C5009D8B2A9693F5F50F91CBAA876D
S31580001518637AC5028507A38FB7FEE31DF6FE828030
S31580001528139785004D8F931507014D8F93170702E3
S315800015385D8FE376C5FEAA87A10723BCE7FEE3EDA8
S31580001548C7FE82808280717122F126ED93040200A3
S31580001558130402003384844022864EE552E1AA8928
S315800015682E8A12859385018206F54AE9D6FC928AE7
S31580001578EFF0FFF413064204058E814533858A0011
S31580001588EFF01FF84E85D285EFF09FE7814501453C
S31580001598EF00002C170400001304444C1460130950
S315800015A8F103137909FCAA8995E6146481E64E85C8
S315800015B8EFF05FE1CA84106C268597050000938555
S315800015C8E543EFF0DFEBAA94E30399FE4A85EF0043
S315800015D80016F1BF106897050000938525424A8555
S315800015E8EFF0FFE91464B304A900F9DEE9B783478D
S315800015F8050089CBAA87850703C707006DFF338552
S31580001608A74082800145828091CD834705008DC39E
S31580001618B306B500AA8721A003C7070011C78507A7
S31580001628E39CD7FE2E858280B385A7402E8582804F
S315800016388145CDBF05058347F5FF850503C7F5FFBA
S3158000164899C7E389E7FE1B850700199D82800145B6
S31580001658EDBFAA87850503C7F5FF8507A38FE7FE34
S3158000166875FB828083470500130700026397E700AE
S31580001678050583470500E38DE7FE1B8757FD13772E
S31580001688D70F15C783460500AA87014685CE01452B
S3158000169885079B8506FD1317250083C607003A959F
S315800016A806052E95F5F619C23305A0408280834635
S315800016B81500938737FD13B6170093071500E1FACF
S315800016C80145D5B7014582800CC182800841012534
S315800016D88280B707006003A5471011898280370783
S315800016E8006083274710918BEDDF8280011122E805
S315800016F806EC26E4A9472A846313F502B70400603A
S31580001708EFF0FFFD23A08410EFF07FFDB54723A0FF
S31580001718F4104264E260A26405616FF05FFCEFF04A
S315800017281FFC0124B707006023A08710DDB741118D
S3158000173822E006E42A840345040009E5A2600264DF
S3158000174841018280EFF09FFA0504F5B737070060FC
S315800017589307400F2326F710B70700808D271705B4
S3158000176800002324F7101305A52A6FF05FFC97075E
S3158000177800009387A72D1377F5003E970347070048
S315800017881181AA97A380E50083C707002380F50007
S315800017988280797122F026EC4AE806F42A89614427
S315800017A8E1543B5589002C001375F50FEFF03FFC8B
S315800017B8034581006134EFF07FF303459100EFF034
S315800017C8FFF2E31094FEA2700274E26442694561F6
S315800017D88280797122F026EC4AE806F42A89130475
S315800017E88003E154335589002C001375F50FEFF00B
S315800017F81FF8034581006134EFF05FEF03459100E0
S31580001808EFF0DFEEE31094FEA2700274E2644269A0
S31580001818456182806FF0FFFB01112C0006ECEFF02A
S315800018281FF503458100EFF07FEC03459100EFF04B
S30D80001838FFEBE260056182808E
S315800018404111170500001305651A06E4EFF0BFEE97
S31580001850A2607D5541018280411117050000130564
S31580001860E51D06E4EFF01FBFA260014541018280BD
S315800018706AF8FFFF08FAFFFFF0F9FFFF08FAFFFF9B
S3158000188008FAFFFF08FAFFFF08FAFFFFFAF9FFFFE1
S3158000189008FAFFFF08FAFFFF68F8FFFFF4F8FFFF7A
S315800018A008FAFFFF68F8FFFF0CF9FFFF0CF9FFFF4E
S315800018B00CF9FFFF0CF9FFFF0CF9FFFF0CF9FFFF96
S315800018C00CF9FFFF0CF9FFFF0CF9FFFF08FAFFFF89
S315800018D008FAFFFF08FAFFFF08FAFFFF08FAFFFF82
S315800018E008FAFFFF08FAFFFF08FAFFFF08FAFFFF72
S315800018F008FAFFFF08FAFFFF08FAFFFF08FAFFFF62
S3158000190008FAFFFF08FAFFFF08FAFFFF08FAFFFF51
S3158000191008FAFFFF08FAFFFF08FAFFFF08FAFFFF41
S3158000192008FAFFFF08FAFFFF08FAFFFF08FAFFFF31
S3158000193008FAFFFF08FAFFFF08FAFFFF08FAFFFF21
S3158000194008FAFFFF08FAFFFF08FAFFFF08FAFFFF11
S3158000195008FAFFFF08FAFFFF08FAFFFF08FAFFFF01
S3158000196008FAFFFF08FAFFFF08FAFFFF08FAFFFFF1
S3158000197052F9FFFFD4F9FFFF08FAFFFF08FAFFFFCD
S3158000198008FAFFFF08FAFFFF08FAFFFF08FAFFFFD1
S3158000199008FAFFFFACF9FFFF08FAFFFF08FAFFFF1E
S315800019A072F8FFFFB6F9FFFF08FAFFFF08FAFFFF9C
S315800019B05EF9FFFF08FAFFFFA8F9FFFF08FAFFFFAD
S30D800019C008FAFFFF08F9FFFF9A
S315800019C8286E756C6C2900006D6379636C65000000
S315800019D86D696E7374726574000000000000000003
S315800019E8496D706C656D656E74206D61696E2829A8
S315800019F82C20666F6F210A002573203D2025640AF6
S31580001A0800000000000000004553502D41726961B6
S31580001A186E652066697273742D737461676520625A
S31580001A286F6F74206C6F616465720A0A000000002B
S31580001A3848656C6C6F2066726F6D20455350210A1D
S30D80001A48000000000000000010
S31580001A50303132333435363738394142434445465E
S705800000007A
